{
    "contractName": "SwapDataUpgradeable",
    "abi": [
        {
            "anonymous": false,
            "inputs": [
                {
                    "indexed": false,
                    "internalType": "uint8",
                    "name": "version",
                    "type": "uint8"
                }
            ],
            "name": "Initialized",
            "type": "event"
        },
        {
            "anonymous": false,
            "inputs": [
                {
                    "indexed": true,
                    "internalType": "bytes32",
                    "name": "role",
                    "type": "bytes32"
                },
                {
                    "indexed": true,
                    "internalType": "bytes32",
                    "name": "previousAdminRole",
                    "type": "bytes32"
                },
                {
                    "indexed": true,
                    "internalType": "bytes32",
                    "name": "newAdminRole",
                    "type": "bytes32"
                }
            ],
            "name": "RoleAdminChanged",
            "type": "event"
        },
        {
            "anonymous": false,
            "inputs": [
                {
                    "indexed": true,
                    "internalType": "bytes32",
                    "name": "role",
                    "type": "bytes32"
                },
                {
                    "indexed": true,
                    "internalType": "address",
                    "name": "account",
                    "type": "address"
                },
                {
                    "indexed": true,
                    "internalType": "address",
                    "name": "sender",
                    "type": "address"
                }
            ],
            "name": "RoleGranted",
            "type": "event"
        },
        {
            "anonymous": false,
            "inputs": [
                {
                    "indexed": true,
                    "internalType": "bytes32",
                    "name": "role",
                    "type": "bytes32"
                },
                {
                    "indexed": true,
                    "internalType": "address",
                    "name": "account",
                    "type": "address"
                },
                {
                    "indexed": true,
                    "internalType": "address",
                    "name": "sender",
                    "type": "address"
                }
            ],
            "name": "RoleRevoked",
            "type": "event"
        },
        {
            "anonymous": false,
            "inputs": [
                {
                    "components": [
                        {
                            "internalType": "uint256",
                            "name": "listingId",
                            "type": "uint256"
                        },
                        {
                            "internalType": "contract IERC721Upgradeable",
                            "name": "tokenAddress",
                            "type": "address"
                        },
                        {
                            "internalType": "uint256",
                            "name": "tokenId",
                            "type": "uint256"
                        },
                        {
                            "internalType": "address",
                            "name": "tokenOwner",
                            "type": "address"
                        },
                        {
                            "internalType": "uint256",
                            "name": "transactionChargeBips",
                            "type": "uint256"
                        },
                        {
                            "internalType": "bool",
                            "name": "isCompleted",
                            "type": "bool"
                        },
                        {
                            "internalType": "bool",
                            "name": "isCancelled",
                            "type": "bool"
                        },
                        {
                            "internalType": "uint256",
                            "name": "transactionCharge",
                            "type": "uint256"
                        }
                    ],
                    "indexed": false,
                    "internalType": "struct SwapDataUpgradeable.SwapListing",
                    "name": "listing",
                    "type": "tuple"
                }
            ],
            "name": "SwapListingAdded",
            "type": "event"
        },
        {
            "anonymous": false,
            "inputs": [
                {
                    "indexed": false,
                    "internalType": "uint256",
                    "name": "listingId",
                    "type": "uint256"
                }
            ],
            "name": "SwapListingRemoved",
            "type": "event"
        },
        {
            "anonymous": false,
            "inputs": [
                {
                    "components": [
                        {
                            "internalType": "uint256",
                            "name": "listingId",
                            "type": "uint256"
                        },
                        {
                            "internalType": "contract IERC721Upgradeable",
                            "name": "tokenAddress",
                            "type": "address"
                        },
                        {
                            "internalType": "uint256",
                            "name": "tokenId",
                            "type": "uint256"
                        },
                        {
                            "internalType": "address",
                            "name": "tokenOwner",
                            "type": "address"
                        },
                        {
                            "internalType": "uint256",
                            "name": "transactionChargeBips",
                            "type": "uint256"
                        },
                        {
                            "internalType": "bool",
                            "name": "isCompleted",
                            "type": "bool"
                        },
                        {
                            "internalType": "bool",
                            "name": "isCancelled",
                            "type": "bool"
                        },
                        {
                            "internalType": "uint256",
                            "name": "transactionCharge",
                            "type": "uint256"
                        }
                    ],
                    "indexed": false,
                    "internalType": "struct SwapDataUpgradeable.SwapListing",
                    "name": "listing",
                    "type": "tuple"
                }
            ],
            "name": "SwapListingUpdated",
            "type": "event"
        },
        {
            "anonymous": false,
            "inputs": [
                {
                    "components": [
                        {
                            "internalType": "uint256",
                            "name": "offerId",
                            "type": "uint256"
                        },
                        {
                            "internalType": "uint256",
                            "name": "listingId",
                            "type": "uint256"
                        },
                        {
                            "internalType": "contract IERC721Upgradeable",
                            "name": "offerTokenAddress",
                            "type": "address"
                        },
                        {
                            "internalType": "uint256",
                            "name": "offerTokenId",
                            "type": "uint256"
                        },
                        {
                            "internalType": "address",
                            "name": "offerTokenOwner",
                            "type": "address"
                        },
                        {
                            "internalType": "contract IERC721Upgradeable",
                            "name": "listingTokenAddress",
                            "type": "address"
                        },
                        {
                            "internalType": "uint256",
                            "name": "listingTokenId",
                            "type": "uint256"
                        },
                        {
                            "internalType": "address",
                            "name": "listingTokenOwner",
                            "type": "address"
                        },
                        {
                            "internalType": "uint256",
                            "name": "transactionChargeBips",
                            "type": "uint256"
                        },
                        {
                            "internalType": "bool",
                            "name": "isCompleted",
                            "type": "bool"
                        },
                        {
                            "internalType": "bool",
                            "name": "isCancelled",
                            "type": "bool"
                        },
                        {
                            "internalType": "bool",
                            "name": "isDeclined",
                            "type": "bool"
                        },
                        {
                            "internalType": "uint256",
                            "name": "transactionCharge",
                            "type": "uint256"
                        }
                    ],
                    "indexed": false,
                    "internalType": "struct SwapDataUpgradeable.SwapOffer",
                    "name": "offer",
                    "type": "tuple"
                }
            ],
            "name": "SwapOfferAdded",
            "type": "event"
        },
        {
            "anonymous": false,
            "inputs": [
                {
                    "indexed": false,
                    "internalType": "uint256",
                    "name": "id",
                    "type": "uint256"
                }
            ],
            "name": "SwapOfferRemoved",
            "type": "event"
        },
        {
            "anonymous": false,
            "inputs": [
                {
                    "components": [
                        {
                            "internalType": "uint256",
                            "name": "offerId",
                            "type": "uint256"
                        },
                        {
                            "internalType": "uint256",
                            "name": "listingId",
                            "type": "uint256"
                        },
                        {
                            "internalType": "contract IERC721Upgradeable",
                            "name": "offerTokenAddress",
                            "type": "address"
                        },
                        {
                            "internalType": "uint256",
                            "name": "offerTokenId",
                            "type": "uint256"
                        },
                        {
                            "internalType": "address",
                            "name": "offerTokenOwner",
                            "type": "address"
                        },
                        {
                            "internalType": "contract IERC721Upgradeable",
                            "name": "listingTokenAddress",
                            "type": "address"
                        },
                        {
                            "internalType": "uint256",
                            "name": "listingTokenId",
                            "type": "uint256"
                        },
                        {
                            "internalType": "address",
                            "name": "listingTokenOwner",
                            "type": "address"
                        },
                        {
                            "internalType": "uint256",
                            "name": "transactionChargeBips",
                            "type": "uint256"
                        },
                        {
                            "internalType": "bool",
                            "name": "isCompleted",
                            "type": "bool"
                        },
                        {
                            "internalType": "bool",
                            "name": "isCancelled",
                            "type": "bool"
                        },
                        {
                            "internalType": "bool",
                            "name": "isDeclined",
                            "type": "bool"
                        },
                        {
                            "internalType": "uint256",
                            "name": "transactionCharge",
                            "type": "uint256"
                        }
                    ],
                    "indexed": false,
                    "internalType": "struct SwapDataUpgradeable.SwapOffer",
                    "name": "offer",
                    "type": "tuple"
                }
            ],
            "name": "SwapOfferUpdated",
            "type": "event"
        },
        {
            "anonymous": false,
            "inputs": [
                {
                    "components": [
                        {
                            "internalType": "uint256",
                            "name": "tradeId",
                            "type": "uint256"
                        },
                        {
                            "internalType": "uint256",
                            "name": "listingId",
                            "type": "uint256"
                        },
                        {
                            "internalType": "uint256",
                            "name": "offerId",
                            "type": "uint256"
                        }
                    ],
                    "indexed": false,
                    "internalType": "struct SwapDataUpgradeable.Trade",
                    "name": "trade",
                    "type": "tuple"
                }
            ],
            "name": "TradeAdded",
            "type": "event"
        },
        {
            "inputs": [],
            "name": "DATA_MIGRATOR",
            "outputs": [
                {
                    "internalType": "bytes32",
                    "name": "",
                    "type": "bytes32"
                }
            ],
            "stateMutability": "view",
            "type": "function"
        },
        {
            "inputs": [],
            "name": "DATA_WRITER",
            "outputs": [
                {
                    "internalType": "bytes32",
                    "name": "",
                    "type": "bytes32"
                }
            ],
            "stateMutability": "view",
            "type": "function"
        },
        {
            "inputs": [],
            "name": "DEFAULT_ADMIN_ROLE",
            "outputs": [
                {
                    "internalType": "bytes32",
                    "name": "",
                    "type": "bytes32"
                }
            ],
            "stateMutability": "view",
            "type": "function"
        },
        {
            "inputs": [
                {
                    "internalType": "bytes32",
                    "name": "role",
                    "type": "bytes32"
                }
            ],
            "name": "getRoleAdmin",
            "outputs": [
                {
                    "internalType": "bytes32",
                    "name": "",
                    "type": "bytes32"
                }
            ],
            "stateMutability": "view",
            "type": "function"
        },
        {
            "inputs": [
                {
                    "internalType": "bytes32",
                    "name": "role",
                    "type": "bytes32"
                },
                {
                    "internalType": "address",
                    "name": "account",
                    "type": "address"
                }
            ],
            "name": "grantRole",
            "outputs": [],
            "stateMutability": "nonpayable",
            "type": "function"
        },
        {
            "inputs": [
                {
                    "internalType": "bytes32",
                    "name": "role",
                    "type": "bytes32"
                },
                {
                    "internalType": "address",
                    "name": "account",
                    "type": "address"
                }
            ],
            "name": "hasRole",
            "outputs": [
                {
                    "internalType": "bool",
                    "name": "",
                    "type": "bool"
                }
            ],
            "stateMutability": "view",
            "type": "function"
        },
        {
            "inputs": [
                {
                    "internalType": "bytes32",
                    "name": "role",
                    "type": "bytes32"
                },
                {
                    "internalType": "address",
                    "name": "account",
                    "type": "address"
                }
            ],
            "name": "renounceRole",
            "outputs": [],
            "stateMutability": "nonpayable",
            "type": "function"
        },
        {
            "inputs": [
                {
                    "internalType": "bytes32",
                    "name": "role",
                    "type": "bytes32"
                },
                {
                    "internalType": "address",
                    "name": "account",
                    "type": "address"
                }
            ],
            "name": "revokeRole",
            "outputs": [],
            "stateMutability": "nonpayable",
            "type": "function"
        },
        {
            "inputs": [
                {
                    "internalType": "bytes4",
                    "name": "interfaceId",
                    "type": "bytes4"
                }
            ],
            "name": "supportsInterface",
            "outputs": [
                {
                    "internalType": "bool",
                    "name": "",
                    "type": "bool"
                }
            ],
            "stateMutability": "view",
            "type": "function"
        },
        {
            "inputs": [
                {
                    "internalType": "address",
                    "name": "admin",
                    "type": "address"
                },
                {
                    "internalType": "address",
                    "name": "writer",
                    "type": "address"
                }
            ],
            "name": "init",
            "outputs": [],
            "stateMutability": "nonpayable",
            "type": "function"
        },
        {
            "inputs": [
                {
                    "components": [
                        {
                            "internalType": "uint256",
                            "name": "listingId",
                            "type": "uint256"
                        },
                        {
                            "internalType": "contract IERC721Upgradeable",
                            "name": "tokenAddress",
                            "type": "address"
                        },
                        {
                            "internalType": "uint256",
                            "name": "tokenId",
                            "type": "uint256"
                        },
                        {
                            "internalType": "address",
                            "name": "tokenOwner",
                            "type": "address"
                        },
                        {
                            "internalType": "uint256",
                            "name": "transactionChargeBips",
                            "type": "uint256"
                        },
                        {
                            "internalType": "bool",
                            "name": "isCompleted",
                            "type": "bool"
                        },
                        {
                            "internalType": "bool",
                            "name": "isCancelled",
                            "type": "bool"
                        },
                        {
                            "internalType": "uint256",
                            "name": "transactionCharge",
                            "type": "uint256"
                        }
                    ],
                    "internalType": "struct SwapDataUpgradeable.SwapListing",
                    "name": "listing",
                    "type": "tuple"
                }
            ],
            "name": "addListing",
            "outputs": [
                {
                    "internalType": "bool",
                    "name": "",
                    "type": "bool"
                }
            ],
            "stateMutability": "nonpayable",
            "type": "function"
        },
        {
            "inputs": [
                {
                    "internalType": "uint256",
                    "name": "id",
                    "type": "uint256"
                }
            ],
            "name": "removeListingById",
            "outputs": [
                {
                    "internalType": "bool",
                    "name": "",
                    "type": "bool"
                }
            ],
            "stateMutability": "nonpayable",
            "type": "function"
        },
        {
            "inputs": [
                {
                    "components": [
                        {
                            "internalType": "uint256",
                            "name": "listingId",
                            "type": "uint256"
                        },
                        {
                            "internalType": "contract IERC721Upgradeable",
                            "name": "tokenAddress",
                            "type": "address"
                        },
                        {
                            "internalType": "uint256",
                            "name": "tokenId",
                            "type": "uint256"
                        },
                        {
                            "internalType": "address",
                            "name": "tokenOwner",
                            "type": "address"
                        },
                        {
                            "internalType": "uint256",
                            "name": "transactionChargeBips",
                            "type": "uint256"
                        },
                        {
                            "internalType": "bool",
                            "name": "isCompleted",
                            "type": "bool"
                        },
                        {
                            "internalType": "bool",
                            "name": "isCancelled",
                            "type": "bool"
                        },
                        {
                            "internalType": "uint256",
                            "name": "transactionCharge",
                            "type": "uint256"
                        }
                    ],
                    "internalType": "struct SwapDataUpgradeable.SwapListing",
                    "name": "listing",
                    "type": "tuple"
                }
            ],
            "name": "updateListing",
            "outputs": [
                {
                    "internalType": "bool",
                    "name": "",
                    "type": "bool"
                }
            ],
            "stateMutability": "nonpayable",
            "type": "function"
        },
        {
            "inputs": [
                {
                    "internalType": "uint256",
                    "name": "id",
                    "type": "uint256"
                }
            ],
            "name": "readListingById",
            "outputs": [
                {
                    "components": [
                        {
                            "internalType": "uint256",
                            "name": "listingId",
                            "type": "uint256"
                        },
                        {
                            "internalType": "contract IERC721Upgradeable",
                            "name": "tokenAddress",
                            "type": "address"
                        },
                        {
                            "internalType": "uint256",
                            "name": "tokenId",
                            "type": "uint256"
                        },
                        {
                            "internalType": "address",
                            "name": "tokenOwner",
                            "type": "address"
                        },
                        {
                            "internalType": "uint256",
                            "name": "transactionChargeBips",
                            "type": "uint256"
                        },
                        {
                            "internalType": "bool",
                            "name": "isCompleted",
                            "type": "bool"
                        },
                        {
                            "internalType": "bool",
                            "name": "isCancelled",
                            "type": "bool"
                        },
                        {
                            "internalType": "uint256",
                            "name": "transactionCharge",
                            "type": "uint256"
                        }
                    ],
                    "internalType": "struct SwapDataUpgradeable.SwapListing",
                    "name": "",
                    "type": "tuple"
                }
            ],
            "stateMutability": "view",
            "type": "function"
        },
        {
            "inputs": [
                {
                    "components": [
                        {
                            "internalType": "uint256",
                            "name": "offerId",
                            "type": "uint256"
                        },
                        {
                            "internalType": "uint256",
                            "name": "listingId",
                            "type": "uint256"
                        },
                        {
                            "internalType": "contract IERC721Upgradeable",
                            "name": "offerTokenAddress",
                            "type": "address"
                        },
                        {
                            "internalType": "uint256",
                            "name": "offerTokenId",
                            "type": "uint256"
                        },
                        {
                            "internalType": "address",
                            "name": "offerTokenOwner",
                            "type": "address"
                        },
                        {
                            "internalType": "contract IERC721Upgradeable",
                            "name": "listingTokenAddress",
                            "type": "address"
                        },
                        {
                            "internalType": "uint256",
                            "name": "listingTokenId",
                            "type": "uint256"
                        },
                        {
                            "internalType": "address",
                            "name": "listingTokenOwner",
                            "type": "address"
                        },
                        {
                            "internalType": "uint256",
                            "name": "transactionChargeBips",
                            "type": "uint256"
                        },
                        {
                            "internalType": "bool",
                            "name": "isCompleted",
                            "type": "bool"
                        },
                        {
                            "internalType": "bool",
                            "name": "isCancelled",
                            "type": "bool"
                        },
                        {
                            "internalType": "bool",
                            "name": "isDeclined",
                            "type": "bool"
                        },
                        {
                            "internalType": "uint256",
                            "name": "transactionCharge",
                            "type": "uint256"
                        }
                    ],
                    "internalType": "struct SwapDataUpgradeable.SwapOffer",
                    "name": "offer",
                    "type": "tuple"
                }
            ],
            "name": "addOffer",
            "outputs": [
                {
                    "internalType": "bool",
                    "name": "",
                    "type": "bool"
                }
            ],
            "stateMutability": "nonpayable",
            "type": "function"
        },
        {
            "inputs": [
                {
                    "internalType": "uint256",
                    "name": "id",
                    "type": "uint256"
                }
            ],
            "name": "removeOfferById",
            "outputs": [
                {
                    "internalType": "bool",
                    "name": "",
                    "type": "bool"
                }
            ],
            "stateMutability": "nonpayable",
            "type": "function"
        },
        {
            "inputs": [
                {
                    "components": [
                        {
                            "internalType": "uint256",
                            "name": "offerId",
                            "type": "uint256"
                        },
                        {
                            "internalType": "uint256",
                            "name": "listingId",
                            "type": "uint256"
                        },
                        {
                            "internalType": "contract IERC721Upgradeable",
                            "name": "offerTokenAddress",
                            "type": "address"
                        },
                        {
                            "internalType": "uint256",
                            "name": "offerTokenId",
                            "type": "uint256"
                        },
                        {
                            "internalType": "address",
                            "name": "offerTokenOwner",
                            "type": "address"
                        },
                        {
                            "internalType": "contract IERC721Upgradeable",
                            "name": "listingTokenAddress",
                            "type": "address"
                        },
                        {
                            "internalType": "uint256",
                            "name": "listingTokenId",
                            "type": "uint256"
                        },
                        {
                            "internalType": "address",
                            "name": "listingTokenOwner",
                            "type": "address"
                        },
                        {
                            "internalType": "uint256",
                            "name": "transactionChargeBips",
                            "type": "uint256"
                        },
                        {
                            "internalType": "bool",
                            "name": "isCompleted",
                            "type": "bool"
                        },
                        {
                            "internalType": "bool",
                            "name": "isCancelled",
                            "type": "bool"
                        },
                        {
                            "internalType": "bool",
                            "name": "isDeclined",
                            "type": "bool"
                        },
                        {
                            "internalType": "uint256",
                            "name": "transactionCharge",
                            "type": "uint256"
                        }
                    ],
                    "internalType": "struct SwapDataUpgradeable.SwapOffer",
                    "name": "offer",
                    "type": "tuple"
                }
            ],
            "name": "updateOffer",
            "outputs": [
                {
                    "internalType": "bool",
                    "name": "",
                    "type": "bool"
                }
            ],
            "stateMutability": "nonpayable",
            "type": "function"
        },
        {
            "inputs": [
                {
                    "internalType": "uint256",
                    "name": "id",
                    "type": "uint256"
                }
            ],
            "name": "readOfferById",
            "outputs": [
                {
                    "components": [
                        {
                            "internalType": "uint256",
                            "name": "offerId",
                            "type": "uint256"
                        },
                        {
                            "internalType": "uint256",
                            "name": "listingId",
                            "type": "uint256"
                        },
                        {
                            "internalType": "contract IERC721Upgradeable",
                            "name": "offerTokenAddress",
                            "type": "address"
                        },
                        {
                            "internalType": "uint256",
                            "name": "offerTokenId",
                            "type": "uint256"
                        },
                        {
                            "internalType": "address",
                            "name": "offerTokenOwner",
                            "type": "address"
                        },
                        {
                            "internalType": "contract IERC721Upgradeable",
                            "name": "listingTokenAddress",
                            "type": "address"
                        },
                        {
                            "internalType": "uint256",
                            "name": "listingTokenId",
                            "type": "uint256"
                        },
                        {
                            "internalType": "address",
                            "name": "listingTokenOwner",
                            "type": "address"
                        },
                        {
                            "internalType": "uint256",
                            "name": "transactionChargeBips",
                            "type": "uint256"
                        },
                        {
                            "internalType": "bool",
                            "name": "isCompleted",
                            "type": "bool"
                        },
                        {
                            "internalType": "bool",
                            "name": "isCancelled",
                            "type": "bool"
                        },
                        {
                            "internalType": "bool",
                            "name": "isDeclined",
                            "type": "bool"
                        },
                        {
                            "internalType": "uint256",
                            "name": "transactionCharge",
                            "type": "uint256"
                        }
                    ],
                    "internalType": "struct SwapDataUpgradeable.SwapOffer",
                    "name": "",
                    "type": "tuple"
                }
            ],
            "stateMutability": "view",
            "type": "function"
        },
        {
            "inputs": [
                {
                    "components": [
                        {
                            "internalType": "uint256",
                            "name": "tradeId",
                            "type": "uint256"
                        },
                        {
                            "internalType": "uint256",
                            "name": "listingId",
                            "type": "uint256"
                        },
                        {
                            "internalType": "uint256",
                            "name": "offerId",
                            "type": "uint256"
                        }
                    ],
                    "internalType": "struct SwapDataUpgradeable.Trade",
                    "name": "trade",
                    "type": "tuple"
                }
            ],
            "name": "addTrade",
            "outputs": [
                {
                    "internalType": "bool",
                    "name": "",
                    "type": "bool"
                }
            ],
            "stateMutability": "nonpayable",
            "type": "function"
        },
        {
            "inputs": [
                {
                    "internalType": "uint256",
                    "name": "id",
                    "type": "uint256"
                }
            ],
            "name": "readTradeById",
            "outputs": [
                {
                    "components": [
                        {
                            "internalType": "uint256",
                            "name": "tradeId",
                            "type": "uint256"
                        },
                        {
                            "internalType": "uint256",
                            "name": "listingId",
                            "type": "uint256"
                        },
                        {
                            "internalType": "uint256",
                            "name": "offerId",
                            "type": "uint256"
                        }
                    ],
                    "internalType": "struct SwapDataUpgradeable.Trade",
                    "name": "",
                    "type": "tuple"
                }
            ],
            "stateMutability": "view",
            "type": "function"
        },
        {
            "inputs": [],
            "name": "readAllListings",
            "outputs": [
                {
                    "components": [
                        {
                            "internalType": "uint256",
                            "name": "listingId",
                            "type": "uint256"
                        },
                        {
                            "internalType": "contract IERC721Upgradeable",
                            "name": "tokenAddress",
                            "type": "address"
                        },
                        {
                            "internalType": "uint256",
                            "name": "tokenId",
                            "type": "uint256"
                        },
                        {
                            "internalType": "address",
                            "name": "tokenOwner",
                            "type": "address"
                        },
                        {
                            "internalType": "uint256",
                            "name": "transactionChargeBips",
                            "type": "uint256"
                        },
                        {
                            "internalType": "bool",
                            "name": "isCompleted",
                            "type": "bool"
                        },
                        {
                            "internalType": "bool",
                            "name": "isCancelled",
                            "type": "bool"
                        },
                        {
                            "internalType": "uint256",
                            "name": "transactionCharge",
                            "type": "uint256"
                        }
                    ],
                    "internalType": "struct SwapDataUpgradeable.SwapListing[]",
                    "name": "",
                    "type": "tuple[]"
                }
            ],
            "stateMutability": "view",
            "type": "function"
        },
        {
            "inputs": [
                {
                    "internalType": "uint256",
                    "name": "start",
                    "type": "uint256"
                },
                {
                    "internalType": "uint256",
                    "name": "end",
                    "type": "uint256"
                }
            ],
            "name": "readListingsByIndex",
            "outputs": [
                {
                    "components": [
                        {
                            "internalType": "uint256",
                            "name": "listingId",
                            "type": "uint256"
                        },
                        {
                            "internalType": "contract IERC721Upgradeable",
                            "name": "tokenAddress",
                            "type": "address"
                        },
                        {
                            "internalType": "uint256",
                            "name": "tokenId",
                            "type": "uint256"
                        },
                        {
                            "internalType": "address",
                            "name": "tokenOwner",
                            "type": "address"
                        },
                        {
                            "internalType": "uint256",
                            "name": "transactionChargeBips",
                            "type": "uint256"
                        },
                        {
                            "internalType": "bool",
                            "name": "isCompleted",
                            "type": "bool"
                        },
                        {
                            "internalType": "bool",
                            "name": "isCancelled",
                            "type": "bool"
                        },
                        {
                            "internalType": "uint256",
                            "name": "transactionCharge",
                            "type": "uint256"
                        }
                    ],
                    "internalType": "struct SwapDataUpgradeable.SwapListing[]",
                    "name": "list",
                    "type": "tuple[]"
                }
            ],
            "stateMutability": "view",
            "type": "function"
        },
        {
            "inputs": [],
            "name": "readAllOffers",
            "outputs": [
                {
                    "components": [
                        {
                            "internalType": "uint256",
                            "name": "offerId",
                            "type": "uint256"
                        },
                        {
                            "internalType": "uint256",
                            "name": "listingId",
                            "type": "uint256"
                        },
                        {
                            "internalType": "contract IERC721Upgradeable",
                            "name": "offerTokenAddress",
                            "type": "address"
                        },
                        {
                            "internalType": "uint256",
                            "name": "offerTokenId",
                            "type": "uint256"
                        },
                        {
                            "internalType": "address",
                            "name": "offerTokenOwner",
                            "type": "address"
                        },
                        {
                            "internalType": "contract IERC721Upgradeable",
                            "name": "listingTokenAddress",
                            "type": "address"
                        },
                        {
                            "internalType": "uint256",
                            "name": "listingTokenId",
                            "type": "uint256"
                        },
                        {
                            "internalType": "address",
                            "name": "listingTokenOwner",
                            "type": "address"
                        },
                        {
                            "internalType": "uint256",
                            "name": "transactionChargeBips",
                            "type": "uint256"
                        },
                        {
                            "internalType": "bool",
                            "name": "isCompleted",
                            "type": "bool"
                        },
                        {
                            "internalType": "bool",
                            "name": "isCancelled",
                            "type": "bool"
                        },
                        {
                            "internalType": "bool",
                            "name": "isDeclined",
                            "type": "bool"
                        },
                        {
                            "internalType": "uint256",
                            "name": "transactionCharge",
                            "type": "uint256"
                        }
                    ],
                    "internalType": "struct SwapDataUpgradeable.SwapOffer[]",
                    "name": "",
                    "type": "tuple[]"
                }
            ],
            "stateMutability": "view",
            "type": "function"
        },
        {
            "inputs": [
                {
                    "internalType": "uint256",
                    "name": "start",
                    "type": "uint256"
                },
                {
                    "internalType": "uint256",
                    "name": "end",
                    "type": "uint256"
                }
            ],
            "name": "readOffersByIndex",
            "outputs": [
                {
                    "components": [
                        {
                            "internalType": "uint256",
                            "name": "offerId",
                            "type": "uint256"
                        },
                        {
                            "internalType": "uint256",
                            "name": "listingId",
                            "type": "uint256"
                        },
                        {
                            "internalType": "contract IERC721Upgradeable",
                            "name": "offerTokenAddress",
                            "type": "address"
                        },
                        {
                            "internalType": "uint256",
                            "name": "offerTokenId",
                            "type": "uint256"
                        },
                        {
                            "internalType": "address",
                            "name": "offerTokenOwner",
                            "type": "address"
                        },
                        {
                            "internalType": "contract IERC721Upgradeable",
                            "name": "listingTokenAddress",
                            "type": "address"
                        },
                        {
                            "internalType": "uint256",
                            "name": "listingTokenId",
                            "type": "uint256"
                        },
                        {
                            "internalType": "address",
                            "name": "listingTokenOwner",
                            "type": "address"
                        },
                        {
                            "internalType": "uint256",
                            "name": "transactionChargeBips",
                            "type": "uint256"
                        },
                        {
                            "internalType": "bool",
                            "name": "isCompleted",
                            "type": "bool"
                        },
                        {
                            "internalType": "bool",
                            "name": "isCancelled",
                            "type": "bool"
                        },
                        {
                            "internalType": "bool",
                            "name": "isDeclined",
                            "type": "bool"
                        },
                        {
                            "internalType": "uint256",
                            "name": "transactionCharge",
                            "type": "uint256"
                        }
                    ],
                    "internalType": "struct SwapDataUpgradeable.SwapOffer[]",
                    "name": "list",
                    "type": "tuple[]"
                }
            ],
            "stateMutability": "view",
            "type": "function"
        },
        {
            "inputs": [],
            "name": "readAllTrades",
            "outputs": [
                {
                    "components": [
                        {
                            "internalType": "uint256",
                            "name": "tradeId",
                            "type": "uint256"
                        },
                        {
                            "internalType": "uint256",
                            "name": "listingId",
                            "type": "uint256"
                        },
                        {
                            "internalType": "uint256",
                            "name": "offerId",
                            "type": "uint256"
                        }
                    ],
                    "internalType": "struct SwapDataUpgradeable.Trade[]",
                    "name": "",
                    "type": "tuple[]"
                }
            ],
            "stateMutability": "view",
            "type": "function"
        },
        {
            "inputs": [
                {
                    "internalType": "uint256",
                    "name": "start",
                    "type": "uint256"
                },
                {
                    "internalType": "uint256",
                    "name": "end",
                    "type": "uint256"
                }
            ],
            "name": "readTradesByIndex",
            "outputs": [
                {
                    "components": [
                        {
                            "internalType": "uint256",
                            "name": "tradeId",
                            "type": "uint256"
                        },
                        {
                            "internalType": "uint256",
                            "name": "listingId",
                            "type": "uint256"
                        },
                        {
                            "internalType": "uint256",
                            "name": "offerId",
                            "type": "uint256"
                        }
                    ],
                    "internalType": "struct SwapDataUpgradeable.Trade[]",
                    "name": "list",
                    "type": "tuple[]"
                }
            ],
            "stateMutability": "view",
            "type": "function"
        },
        {
            "inputs": [
                {
                    "internalType": "address",
                    "name": "to",
                    "type": "address"
                }
            ],
            "name": "grantWriterRole",
            "outputs": [],
            "stateMutability": "nonpayable",
            "type": "function"
        }
    ],
    "bytecode": "0x608060405234801561001057600080fd5b50612309806100206000396000f3fe608060405234801561001057600080fd5b50600436106101a95760003560e01c806391d14854116100f9578063cf28153511610097578063d7aa10fc11610071578063d7aa10fc146103b6578063eadece7d146103d6578063f022e25c146103e9578063f09a40161461040957600080fd5b8063cf2815351461037d578063cff7c90e14610390578063d547741f146103a357600080fd5b8063b81603ba116100d3578063b81603ba14610322578063bf34ebc814610342578063c2c83f9a14610357578063cd07708d1461036a57600080fd5b806391d14854146102f25780639901ff6314610305578063a217fddf1461031a57600080fd5b8063366505c1116101665780635541596b116101405780635541596b146102b1578063636651bb146102c457806367722a22146102d75780639167be62146102df57600080fd5b8063366505c1146102645780634168e8971461027757806353e86fee1461029e57600080fd5b806301ffc9a7146101ae57806306f91841146101d6578063248a9ca3146101f65780632f2ff15d1461022757806331ebe3f91461023c57806336568abe14610251575b600080fd5b6101c16101bc366004611b62565b61041c565b60405190151581526020015b60405180910390f35b6101e96101e4366004611b8c565b610453565b6040516101cd9190611c7a565b610219610204366004611cc9565b60009081526065602052604090206001015490565b6040519081526020016101cd565b61023a610235366004611d07565b61062f565b005b610244610659565b6040516101cd9190611d37565b61023a61025f366004611d07565b61076a565b6101c1610272366004611deb565b6107e8565b6102197f11110fccdbb5d806b8301c3f7f399455c297483f76b3271f762b634da1a660d281565b6102446102ac366004611b8c565b610904565b6101c16102bf366004611eaa565b610a5b565b6101c16102d2366004611deb565b610bc6565b6101e9610cac565b6101c16102ed366004611eaa565b610e29565b6101c1610300366004611d07565b610f71565b6102196000805160206122b483398151915281565b610219600081565b610335610330366004611cc9565b610f9c565b6040516101cd9190611fe0565b61034a61102b565b6040516101cd9190611fef565b6101c1610365366004611cc9565b611167565b61023a610378366004612032565b6111d1565b6101c161038b366004611cc9565b6111ec565b6101c161039e36600461204f565b611256565b61023a6103b1366004611d07565b6112ef565b6103c96103c4366004611cc9565b611314565b6040516101cd91906120b9565b61034a6103e4366004611b8c565b6113e4565b6103fc6103f7366004611cc9565b61156d565b6040516101cd91906120c8565b61023a6104173660046120e9565b6115ca565b60006001600160e01b03198216637965db0b60e01b148061044d57506301ffc9a760e01b6001600160e01b03198316145b92915050565b60608282101561047e5760405162461bcd60e51b815260040161047590612117565b60405180910390fd5b6000600161048b60985490565b6104959190612164565b9050600083828611156104aa5750505061044d565b828511156104b55750815b6104bf8682612164565b6104ca906001612177565b67ffffffffffffffff8111156104e2576104e2611d8d565b60405190808252806020026020018201604052801561051b57816020015b610508611a9b565b8152602001906001900390816105005790505b5093508591505b808211610626576000828152609b602090815260409182902082516101a0810184528154815260018201549281019290925260028101546001600160a01b0390811693830193909352600381015460608301526004810154831660808301526005810154831660a0830152600681015460c0830152600781015490921660e0820152600882015461010080830191909152600983015460ff808216151561012085015291810482161515610140840152620100009004161515610160820152600a90910154610180820152846105f88885612164565b815181106106085761060861218a565b6020026020010181905250818061061e906121a0565b925050610522565b50505092915050565b60008281526065602052604090206001015461064a81611729565b6106548383611733565b505050565b60606000600161066860995490565b6106729190612164565b67ffffffffffffffff81111561068a5761068a611d8d565b6040519080825280602002602001820160405280156106df57816020015b6106cc60405180606001604052806000815260200160008152602001600081525090565b8152602001906001900390816106a85790505b50905060005b815181101561076457609c60006106fd836001612177565b815260200190815260200160002060405180606001604052908160008201548152602001600182015481526020016002820154815250508282815181106107465761074661218a565b6020026020010181905250808061075c906121a0565b9150506106e5565b50919050565b6001600160a01b03811633146107da5760405162461bcd60e51b815260206004820152602f60248201527f416363657373436f6e74726f6c3a2063616e206f6e6c792072656e6f756e636560448201526e103937b632b9903337b91039b2b63360891b6064820152608401610475565b6107e482826117b9565b5050565b60006000805160206122b483398151915261080281611729565b609754835282609a600061081560975490565b8152602080820192909252604090810160002083518155918301516001830180546001600160a01b039283166001600160a01b03199182161790915591840151600284015560608401516003840180549190921692169190911790556080820151600482015560a082015160058201805460c085015115156101000261ff00199315159390931661ffff199091161791909117905560e0909101516006909101556108c4609780546001019055565b7f418cd676c9793f75ba96025aa3d745018dc4edc4b51d104cea0af0fc7b9b0d26836040516108f39190611fe0565b60405180910390a150600192915050565b6060828210156109265760405162461bcd60e51b815260040161047590612117565b6000600161093360995490565b61093d9190612164565b9050600083828611156109525750505061044d565b8285111561095d5750815b6109678682612164565b610972906001612177565b67ffffffffffffffff81111561098a5761098a611d8d565b6040519080825280602002602001820160405280156109df57816020015b6109cc60405180606001604052806000815260200160008152602001600081525090565b8152602001906001900390816109a85790505b5093508591505b808211610626576000828152609c6020908152604091829020825160608101845281548152600182015492810192909252600201549181019190915284610a2d8885612164565b81518110610a3d57610a3d61218a565b60200260200101819052508180610a53906121a0565b9250506109e6565b60006000805160206122b4833981519152610a7581611729565b609854835282609b6000610a8860985490565b81526020808201929092526040908101600020835181559183015160018301558201516002820180546001600160a01b039283166001600160a01b03199182161790915560608401516003840155608084015160048401805491841691831691909117905560a084015160058401805491841691831691909117905560c0840151600684015560e08401516007840180549190931691161790556101008083015160088301556101208301516009830180546101408601516101608701511515620100000262ff00001991151590950261ff00199415159490941661ffff1990921691909117929092179190911691909117905561018090910151600a90910155610b97609880546001019055565b7f421ea47ef6e721c8687eff283e3cae83ec79fb379ac7e5be4285c4f4c68c3e54836040516108f391906120b9565b60006000805160206122b4833981519152610be081611729565b82516000908152609a602090815260409182902085518155908501516001820180546001600160a01b039283166001600160a01b03199182161790915583870151600284015560608701516003840180549190931691161790556080850151600482015560a085015160058201805460c088015115156101000261ff00199315159390931661ffff199091161791909117905560e0850151600690910155517ffac338531d5b0b2165f434d6b3974a2d388f546fee8aae7ce385671015eeaacb906108f3908590611fe0565b606060006001610cbb60985490565b610cc59190612164565b67ffffffffffffffff811115610cdd57610cdd611d8d565b604051908082528060200260200182016040528015610d1657816020015b610d03611a9b565b815260200190600190039081610cfb5790505b50905060005b815181101561076457609b6000610d34836001612177565b8152602080820192909252604090810160002081516101a0810183528154815260018201549381019390935260028101546001600160a01b0390811692840192909252600381015460608401526004810154821660808401526005810154821660a0840152600681015460c0840152600781015490911660e0830152600881015461010080840191909152600982015460ff808216151561012086015291810482161515610140850152620100009004161515610160830152600a01546101808201528251839083908110610e0b57610e0b61218a565b60200260200101819052508080610e21906121a0565b915050610d1c565b60006000805160206122b4833981519152610e4381611729565b82516000908152609b602090815260409182902085518155908501516001820155818501516002820180546001600160a01b03199081166001600160a01b0393841617909155606087015160038401556080870151600484018054831691841691909117905560a0870151600584018054831691841691909117905560c0870151600684015560e087015160078401805490921692169190911790556101008086015160088301556101208601516009830180546101408901516101608a015161ffff1990921693151561ff001916939093179215159093029190911762ff000019166201000092151592909202919091179055610180850151600a90910155517f73bf10f431953401ad4adc876e49289879495ffba6b1e6fcab8499ed4fb1ef57906108f39085906120b9565b60009182526065602090815260408084206001600160a01b0393909316845291905290205460ff1690565b610fa4611b07565b506000908152609a6020908152604091829020825161010080820185528254825260018301546001600160a01b03908116948301949094526002830154948201949094526003820154909216606083015260048101546080830152600581015460ff808216151560a0850152939004909216151560c082015260069091015460e082015290565b60606000600161103a60975490565b6110449190612164565b67ffffffffffffffff81111561105c5761105c611d8d565b60405190808252806020026020018201604052801561109557816020015b611082611b07565b81526020019060019003908161107a5790505b50905060005b815181101561076457609a60006110b3836001612177565b81526020808201929092526040908101600020815161010080820184528254825260018301546001600160a01b03908116958301959095526002830154938201939093526003820154909316606084015260048101546080840152600581015460ff808216151560a0860152929004909116151560c08301526006015460e082015282518390839081106111495761114961218a565b6020026020010181905250808061115f906121a0565b91505061109b565b60006000805160206122b483398151915261118181611729565b6000838152609b602052604090819020600901805461ff001916610100179055517f9658b6b21254e18b2df762ac28da18a17c7d65232a3985638e301b3ee8b1467e906108f39085815260200190565b6111e96000805160206122b48339815191528261062f565b50565b60006000805160206122b483398151915261120681611729565b6000838152609a602052604090819020600501805461ff001916610100179055517f3e93d23e063b84ea7cefd61949968ea1c1f2bfb0b9135599af8044766f7bce88906108f39085815260200190565b60006000805160206122b483398151915261127081611729565b609954835282609c600061128360995490565b81526020019081526020016000206000820151816000015560208201518160010155604082015181600201559050506112c0609980546001019055565b7f3e548515aa4f5661aa8f01438dcebdc27111ecdeedb4e19d9b1974fa7049149b836040516108f391906120c8565b60008281526065602052604090206001015461130a81611729565b61065483836117b9565b61131c611a9b565b506000908152609b602090815260409182902082516101a0810184528154815260018201549281019290925260028101546001600160a01b0390811693830193909352600381015460608301526004810154831660808301526005810154831660a0830152600681015460c0830152600781015490921660e0820152600882015461010080830191909152600983015460ff808216151561012085015291810482161515610140840152620100009004161515610160820152600a9091015461018082015290565b6060828210156114065760405162461bcd60e51b815260040161047590612117565b6000600161141360985490565b61141d9190612164565b9050600083828611156114325750505061044d565b8285111561143d5750815b6114478682612164565b611452906001612177565b67ffffffffffffffff81111561146a5761146a611d8d565b6040519080825280602002602001820160405280156114a357816020015b611490611b07565b8152602001906001900390816114885790505b5093508591505b808211610626576000828152609a6020908152604091829020825161010080820185528254825260018301546001600160a01b03908116948301949094526002830154948201949094526003820154909216606083015260048101546080830152600581015460ff808216151560a0850152939004909216151560c082015260069091015460e08201528461153f8885612164565b8151811061154f5761154f61218a565b60200260200101819052508180611565906121a0565b9250506114aa565b61159160405180606001604052806000815260200160008152602001600081525090565b506000908152609c6020908152604091829020825160608101845281548152600182015492810192909252600201549181019190915290565b600054610100900460ff16158080156115ea5750600054600160ff909116105b806116045750303b158015611604575060005460ff166001145b6116675760405162461bcd60e51b815260206004820152602e60248201527f496e697469616c697a61626c653a20636f6e747261637420697320616c72656160448201526d191e481a5b9a5d1a585b1a5e995960921b6064820152608401610475565b6000805460ff19166001179055801561168a576000805461ff0019166101001790555b611692611820565b61169d600084611733565b6116b56000805160206122b483398151915283611733565b6116c3609780546001019055565b6116d1609880546001019055565b6116df609980546001019055565b8015610654576000805461ff0019169055604051600181527f7f26b83ff96e1f2b6a682f133852f6798a09c465da95921460cefb38474024989060200160405180910390a1505050565b6111e9813361188d565b61173d8282610f71565b6107e45760008281526065602090815260408083206001600160a01b03851684529091529020805460ff191660011790556117753390565b6001600160a01b0316816001600160a01b0316837f2f8788117e7eff1d82e926ec794901d17c78024a50270940304540a733656f0d60405160405180910390a45050565b6117c38282610f71565b156107e45760008281526065602090815260408083206001600160a01b0385168085529252808320805460ff1916905551339285917ff6391f5c32d9c69d2a47ea670b442974b53935d1edc7fd64eb21e047a839171b9190a45050565b600054610100900460ff1661188b5760405162461bcd60e51b815260206004820152602b60248201527f496e697469616c697a61626c653a20636f6e7472616374206973206e6f74206960448201526a6e697469616c697a696e6760a81b6064820152608401610475565b565b6118978282610f71565b6107e4576118a4816118e6565b6118af8360206118f8565b6040516020016118c09291906121dd565b60408051601f198184030181529082905262461bcd60e51b825261047591600401612252565b606061044d6001600160a01b03831660145b60606000611907836002612285565b611912906002612177565b67ffffffffffffffff81111561192a5761192a611d8d565b6040519080825280601f01601f191660200182016040528015611954576020820181803683370190505b509050600360fc1b8160008151811061196f5761196f61218a565b60200101906001600160f81b031916908160001a905350600f60fb1b8160018151811061199e5761199e61218a565b60200101906001600160f81b031916908160001a90535060006119c2846002612285565b6119cd906001612177565b90505b6001811115611a45576f181899199a1a9b1b9c1cb0b131b232b360811b85600f1660108110611a0157611a0161218a565b1a60f81b828281518110611a1757611a1761218a565b60200101906001600160f81b031916908160001a90535060049490941c93611a3e8161229c565b90506119d0565b508315611a945760405162461bcd60e51b815260206004820181905260248201527f537472696e67733a20686578206c656e67746820696e73756666696369656e746044820152606401610475565b9392505050565b604080516101a081018252600080825260208201819052918101829052606081018290526080810182905260a0810182905260c0810182905260e08101829052610100810182905261012081018290526101408101829052610160810182905261018081019190915290565b6040518061010001604052806000815260200160006001600160a01b031681526020016000815260200160006001600160a01b0316815260200160008152602001600015158152602001600015158152602001600081525090565b600060208284031215611b7457600080fd5b81356001600160e01b031981168114611a9457600080fd5b60008060408385031215611b9f57600080fd5b50508035926020909101359150565b80518252602081015160208301526040810151611bd660408401826001600160a01b03169052565b50606081015160608301526080810151611bfb60808401826001600160a01b03169052565b5060a0810151611c1660a08401826001600160a01b03169052565b5060c081015160c083015260e0810151611c3b60e08401826001600160a01b03169052565b50610100818101519083015261012080820151151590830152610140808201511515908301526101608082015115159083015261018090810151910152565b6020808252825182820181905260009190848201906040850190845b81811015611cbd57611ca9838551611bae565b928401926101a09290920191600101611c96565b50909695505050505050565b600060208284031215611cdb57600080fd5b5035919050565b6001600160a01b03811681146111e957600080fd5b8035611d0281611ce2565b919050565b60008060408385031215611d1a57600080fd5b823591506020830135611d2c81611ce2565b809150509250929050565b6020808252825182820181905260009190848201906040850190845b81811015611cbd57611d7a8385518051825260208082015190830152604090810151910152565b9284019260609290920191600101611d53565b634e487b7160e01b600052604160045260246000fd5b6040516101a0810167ffffffffffffffff81118282101715611dd557634e487b7160e01b600052604160045260246000fd5b60405290565b80358015158114611d0257600080fd5b6000610100808385031215611dff57600080fd5b6040519081019067ffffffffffffffff82118183101715611e3057634e487b7160e01b600052604160045260246000fd5b816040528335815260208401359150611e4882611ce2565b81602082015260408401356040820152611e6460608501611cf7565b606082015260808401356080820152611e7f60a08501611ddb565b60a0820152611e9060c08501611ddb565b60c082015260e084013560e0820152809250505092915050565b60006101a08284031215611ebd57600080fd5b611ec5611da3565b8235815260208301356020820152611edf60408401611cf7565b604082015260608301356060820152611efa60808401611cf7565b6080820152611f0b60a08401611cf7565b60a082015260c083013560c0820152611f2660e08401611cf7565b60e08201526101008381013590820152610120611f44818501611ddb565b90820152610140611f56848201611ddb565b90820152610160611f68848201611ddb565b90820152610180928301359281019290925250919050565b80518252602081015160018060a01b0380821660208501526040830151604085015280606084015116606085015250506080810151608083015260a0810151151560a083015260c0810151151560c083015260e081015160e08301525050565b610100810161044d8284611f80565b6020808252825182820181905260009190848201906040850190845b81811015611cbd5761201e838551611f80565b92840192610100929092019160010161200b565b60006020828403121561204457600080fd5b8135611a9481611ce2565b60006060828403121561206157600080fd5b6040516060810181811067ffffffffffffffff8211171561209257634e487b7160e01b600052604160045260246000fd5b80604052508235815260208301356020820152604083013560408201528091505092915050565b6101a0810161044d8284611bae565b8151815260208083015190820152604080830151908201526060810161044d565b600080604083850312156120fc57600080fd5b823561210781611ce2565b91506020830135611d2c81611ce2565b6020808252601f908201527f656e642073686f756c6420626520626967676572207468616e20737461727400604082015260600190565b634e487b7160e01b600052601160045260246000fd5b8181038181111561044d5761044d61214e565b8082018082111561044d5761044d61214e565b634e487b7160e01b600052603260045260246000fd5b6000600182016121b2576121b261214e565b5060010190565b60005b838110156121d45781810151838201526020016121bc565b50506000910152565b7f416363657373436f6e74726f6c3a206163636f756e74200000000000000000008152600083516122158160178501602088016121b9565b7001034b99036b4b9b9b4b733903937b6329607d1b60179184019182015283516122468160288401602088016121b9565b01602801949350505050565b60208152600082518060208401526122718160408501602087016121b9565b601f01601f19169190910160400192915050565b808202811582820484141761044d5761044d61214e565b6000816122ab576122ab61214e565b50600019019056fe4b1f673169b7c165c16c575571c9bb3baf6244b05340a0d0c7d6ecefe1ac055ba264697066735822122059d324e9526187b39f10ee3b86247da30cb38e187eafc3199d7a00932eb4d63264736f6c63430008110033",
    "immutableReferences": {},
    "source": "//SPDX-License-Identifier: MIT\npragma solidity 0.8.17;\n\nimport \"@openzeppelin/contracts-upgradeable/access/AccessControlUpgradeable.sol\";\nimport \"@openzeppelin/contracts-upgradeable/token/ERC721/IERC721Upgradeable.sol\";\nimport \"@openzeppelin/contracts-upgradeable/utils/CountersUpgradeable.sol\";\nimport \"@openzeppelin/contracts-upgradeable/proxy/utils/Initializable.sol\";\n\ncontract SwapDataUpgradeable is Initializable, AccessControlUpgradeable {\n    using CountersUpgradeable for CountersUpgradeable.Counter;\n\n    struct SwapListing {\n        uint256 listingId;\n        IERC721Upgradeable tokenAddress;\n        uint256 tokenId;\n        address tokenOwner;\n        uint256 transactionChargeBips;\n        bool isCompleted;\n        bool isCancelled;\n        uint256 transactionCharge;\n    }\n\n    struct SwapOffer {\n        uint256 offerId;\n        uint256 listingId;\n        IERC721Upgradeable offerTokenAddress;\n        uint256 offerTokenId;\n        address offerTokenOwner;\n        IERC721Upgradeable listingTokenAddress;\n        uint256 listingTokenId;\n        address listingTokenOwner;\n        uint256 transactionChargeBips;\n        bool isCompleted;\n        bool isCancelled;\n        bool isDeclined;\n        uint256 transactionCharge;\n    }\n\n    struct Trade {\n        uint256 tradeId;\n        uint256 listingId;\n        uint256 offerId;\n    }\n\n    bytes32 public constant DATA_WRITER = keccak256(\"WRITE_DATA\");\n    bytes32 public constant DATA_MIGRATOR = keccak256(\"DATA_MIGRATOR\");\n\n    CountersUpgradeable.Counter private _listingIdTracker;\n    CountersUpgradeable.Counter private _offerIdTracker;\n    CountersUpgradeable.Counter private _tradeIdTracker;\n\n    mapping(uint256 => SwapListing) private _listings;\n    mapping(uint256 => SwapOffer) private _offers;\n    mapping(uint256 => Trade) private _trades;\n\n    event SwapListingAdded(SwapListing listing);\n    event SwapListingUpdated(SwapListing listing);\n    event SwapListingRemoved(uint256 listingId);\n    event SwapOfferAdded(SwapOffer offer);\n    event SwapOfferUpdated(SwapOffer offer);\n    event SwapOfferRemoved(uint256 id);\n    event TradeAdded(Trade trade);\n\n    function init(\n        address admin,\n        address writer\n    ) public initializer {\n        __AccessControl_init();\n        _grantRole(DEFAULT_ADMIN_ROLE, admin); // Admin Wallet address\n        _grantRole(DATA_WRITER, writer); // Swap COntract\n        _listingIdTracker.increment();\n        _offerIdTracker.increment();\n        _tradeIdTracker.increment();\n    }\n\n    // CRUD Listing\n    function addListing(SwapListing memory listing)\n        external\n        onlyRole(DATA_WRITER)\n        returns (bool)\n    {\n        listing.listingId = _listingIdTracker.current();\n        _listings[_listingIdTracker.current()] = listing;\n        _listingIdTracker.increment();\n        emit SwapListingAdded(listing);\n        return true;\n    }\n\n    function removeListingById(uint256 id)\n        external\n        onlyRole(DATA_WRITER)\n        returns (bool)\n    {\n        _listings[id].isCancelled = true;\n        emit SwapListingRemoved(id);\n        return true;\n    }\n\n    function updateListing(SwapListing memory listing)\n        external\n        onlyRole(DATA_WRITER)\n        returns (bool)\n    {\n        _listings[listing.listingId] = listing;\n        emit SwapListingUpdated(listing);\n        return true;\n    }\n\n    function readListingById(uint256 id)\n        external\n        view\n        returns (SwapListing memory)\n    {\n        return _listings[id];\n    }\n\n    // CRUD Offer\n    function addOffer(SwapOffer memory offer)\n        external\n        onlyRole(DATA_WRITER)\n        returns (bool)\n    {\n        offer.offerId = _offerIdTracker.current();\n        _offers[_offerIdTracker.current()] = offer;\n        _offerIdTracker.increment();\n        emit SwapOfferAdded(offer);\n        return true;\n    }\n\n    function removeOfferById(uint256 id)\n        external\n        onlyRole(DATA_WRITER)\n        returns (bool)\n    {\n        _offers[id].isCancelled = true;\n        emit SwapOfferRemoved(id);\n        return true;\n    }\n\n    function updateOffer(SwapOffer memory offer)\n        external\n        onlyRole(DATA_WRITER)\n        returns (bool)\n    {\n        _offers[offer.offerId] = offer;\n        emit SwapOfferUpdated(offer);\n        return true;\n    }\n\n    function readOfferById(uint256 id)\n        external\n        view\n        returns (SwapOffer memory)\n    {\n        return _offers[id];\n    }\n\n    function addTrade(Trade memory trade)\n        external\n        onlyRole(DATA_WRITER)\n        returns (bool)\n    {\n        trade.tradeId = _tradeIdTracker.current();\n        _trades[_tradeIdTracker.current()] = trade;\n        _tradeIdTracker.increment();\n        emit TradeAdded(trade);\n        return true;\n    }\n\n    function readTradeById(uint256 id)\n        external\n        view\n        returns (Trade memory)\n    {\n        return _trades[id];\n    }\n\n    // Bulk reads\n    function readAllListings()\n        external\n        view\n        returns (SwapListing[] memory)\n    {\n        SwapListing[] memory listings = new SwapListing[](\n            _listingIdTracker.current() - 1\n        );\n        for (uint256 i = 0; i < listings.length; i++) {\n            listings[i] = _listings[i + 1];\n        }\n        return listings;\n    }\n\n    function readListingsByIndex(\n        uint256 start,\n        uint256 end\n    ) external view returns (SwapListing[] memory list) {\n        require(end >= start, 'end should be bigger than start');\n        \n        uint256 lastIndex = _offerIdTracker.current() - 1;\n        uint256 i;\n        uint256 to = end;\n\n        if (start > lastIndex) return list;\n        if (end > lastIndex) to = lastIndex;\n\n        list = new SwapListing[](to - start + 1);\n        for (i = start; i <= to; i++) {\n            list[i - start] = _listings[i];\n        }\n        return list;\n    }\n\n    function readAllOffers()\n        external\n        view\n        returns (SwapOffer[] memory)\n    {\n        SwapOffer[] memory swapOffers = new SwapOffer[](\n            _offerIdTracker.current() - 1\n        );\n        for (uint256 i = 0; i < swapOffers.length; i++) {\n            swapOffers[i] = _offers[i + 1];\n        }\n        return swapOffers;\n    }\n\n    function readOffersByIndex(\n        uint256 start,\n        uint256 end\n    ) external view returns (SwapOffer[] memory list) {\n        require(end >= start, 'end should be bigger than start');\n        \n        uint256 lastIndex = _offerIdTracker.current() - 1;\n        uint256 i;\n        uint256 to = end;\n\n        if (start > lastIndex) return list;\n        if (end > lastIndex) to = lastIndex;\n\n        list = new SwapOffer[](to - start + 1);\n        for ( i = start; i <= to; i++) {\n            list[i - start] = _offers[i];\n        }\n        return list;\n    }\n\n    function readAllTrades()\n        external\n        view\n        returns (Trade[] memory)\n    {\n        Trade[] memory trades = new Trade[](_tradeIdTracker.current() - 1);\n        for (uint256 i = 0; i < trades.length; i++) {\n            trades[i] = _trades[i + 1];\n        }\n        return trades;\n    }\n\n    function readTradesByIndex(\n        uint256 start,\n        uint256 end\n    ) external view returns (Trade[] memory list) {\n        require(end >= start, 'end should be bigger than start');\n        \n        uint256 lastIndex = _tradeIdTracker.current() - 1;\n        uint256 i;\n        uint256 to = end;\n\n        if (start > lastIndex) return list;\n        if (end > lastIndex) to = lastIndex;\n\n        list = new Trade[](to - start + 1);\n        for (i = start; i <= to; i++) {\n            list[i - start] = _trades[i];\n        }\n    }\n\n    function grantWriterRole(address to) external {\n        grantRole(DATA_WRITER, to);\n    }\n}",
    "sourcePath": "/Users/shivam/github/contracts-upgradable/contracts/SwapDataUpgradeable.sol",
    "compiler": {
        "name": "solc",
        "version": "0.8.17+commit.8df45f5f.Emscripten.clang"
    },
    "schemaVersion": "3.4.7",
    "updatedAt": "2023-10-25T17:50:31.104Z",
    "networkType": "ethereum",
    "devdoc": {
        "kind": "dev",
        "methods": {
            "getRoleAdmin(bytes32)": {
                "details": "Returns the admin role that controls `role`. See {grantRole} and {revokeRole}. To change a role's admin, use {_setRoleAdmin}."
            },
            "grantRole(bytes32,address)": {
                "details": "Grants `role` to `account`. If `account` had not been already granted `role`, emits a {RoleGranted} event. Requirements: - the caller must have ``role``'s admin role. May emit a {RoleGranted} event."
            },
            "hasRole(bytes32,address)": {
                "details": "Returns `true` if `account` has been granted `role`."
            },
            "renounceRole(bytes32,address)": {
                "details": "Revokes `role` from the calling account. Roles are often managed via {grantRole} and {revokeRole}: this function's purpose is to provide a mechanism for accounts to lose their privileges if they are compromised (such as when a trusted device is misplaced). If the calling account had been revoked `role`, emits a {RoleRevoked} event. Requirements: - the caller must be `account`. May emit a {RoleRevoked} event."
            },
            "revokeRole(bytes32,address)": {
                "details": "Revokes `role` from `account`. If `account` had been granted `role`, emits a {RoleRevoked} event. Requirements: - the caller must have ``role``'s admin role. May emit a {RoleRevoked} event."
            },
            "supportsInterface(bytes4)": {
                "details": "See {IERC165-supportsInterface}."
            }
        },
        "version": 1
    },
    "userdoc": {
        "kind": "user",
        "methods": {},
        "version": 1
    }
}